:020000040000FA
:020000002928AD
:020008009E2830
:10004000FF3FFF3FFF3FFF3FFF3FFF3FFF3FFF3FC0
:10005000FF3F83160313003088008500FF308600C1
:1000600006309F000C140B178B17831203130030FC
:10007000880085009001101490161016A201A301AB
:10008000A401A5018E018F0106184828A201A30131
:10009000013086184E28861C4B289006220C0A3AFE
:1000A000031D5428A201A30A2308063A0319A30139
:1000B000A40A24080A3A031D5F28A401A50A2508FA
:1000C000063A0319A5010512220CAE2088008516F8
:1000D00028188817281C8813872085122308AE202B
:1000E0008800051687208510240CAE208800051591
:1000F00028180817281C081305112508AE208800A9
:1001000085144428FF30A000A003031D8428043078
:10011000A000E830A1000000000000000000000086
:10012000A1030319A00B8B2808000230A000F330B4
:10013000A100A1030319A00B9B280800A600030E31
:10014000A7000C10A20A0B308F00E1308E000130A6
:10015000A806270E8300A60E260E09006F39820717
:100160003F3406345B344F3466346D347D340734A9
:040170007F346F3435
:02400E00323F3F
:00000001FF
