:040000008A15002835
:06000600000000000800EC
:0E000C00213083120313FD00FD0B0A280800AB
:10001A000F3083120313FC004730FD00FD0B132839
:0A002A00FC0B132800000000080082
:1000340083160313BF1B21288312881323288312DA
:10004400881783163F1B2928831208132B28831231
:1000540008178316BF1A3128831288123328831293
:10006400881683163F1A3928831208123B288312F4
:10007400081658183F280915402809118914032027
:1000840089108316BF194928831288134B288312B9
:10009400881783163F195128831208135328831293
:1000A40008178316BF185928831288125B288312F5
:1000B400881683163F186128831208126328831256
:1000C4000816581867280915682809118914032087
:0E00D4008910581C6F280D2070280620080087
:0800E200FA1FF21300300800C0
:1000EA007B15FB1F7F280130F300F201F101F001BB
:0800FA00FA0DF20CFF300800C2
:0E010200F201F101F001F801F30100300800F4
:10011000403083120313F4001F30F500F601F7019D
:100120007408F0007508F1007608F2007708F30013
:020130000800C5
:100132008316031398189F28000099283E088312FB
:040142009900080018
:100146007B14FB1FAE28F201FA1FFF30F200F1000C
:0A015600F000FA0DF20CFF30080073
:10016000831203132230FC00F801F901FA01FB01AC
:10017000FC030319E6280310FB0CFA0CF90CF80C2D
:10018000F30CF20CF10CF00C031CB828FC0303195F
:10019000D8287408F80775080318750FF90776084A
:1001A0000318760FFA0777080318770FFB07BC28A8
:1001B0007408F80775080318750FF907760803180F
:0E01C000760FFA0777080318770FFB07080081
:1001CE000E3083120313FD00FD0BEB280000080018
:1001DE00FB14FB1FF928FF30F300F200F100F000D2
:0801EE00FA0DF20CFF300800CD
:1001F60083120313FB01FA01F901F801A001730D43
:10020600F80D7408F8027508031C750FF9027608D4
:10021600031C760FFA027708031C770FFB02000116
:10022600031C0130A002F30D0730FC00730DF80D1E
:10023600F90DFA0DFB0DA00D7408731C3429F80294
:100246007508031C750FF9027608031C760FFA026F
:100256007708031C770FFB020001031C0130A00284
:100266004529F80775080318750FF9077608031866
:10027600760FFA0777080318770FFB0700010318B4
:100286000130A007F30DFC0B1929720DF80DF90DBD
:10029600FA0DFB0DA00D7408731C6329F80275088E
:1002A600031C750FF9027608031C760FFA0277080D
:1002B600031C770FFB020001031C0130A002742906
:1002C600F80775080318750FF90776080318760FEF
:1002D600FA0777080318770FFB07000103180130A8
:1002E600A007F20D0730FC00720DF80DF90DFA0D9E
:1002F600FB0DA00D7408721C9229F8027508031CE8
:10030600750FF9027608031C760FFA027708031CAC
:10031600770FFB020001031C0130A002A329F80796
:1003260075080318750FF90776080318760FFA078C
:1003360077080318770FFB07000103180130A007A1
:10034600F20DFC0B7729710DF80DF90DFA0DFB0D69
:10035600A00D7408721CC129F8027508031C750FDC
:10036600F9027608031C760FFA027708031C770F4A
:10037600FB020001031C0130A002D229F807750810
:100386000318750FF90776080318760FFA0777082A
:100396000318770FFB07000103180130A007F10DC2
:1003A6000730FC00710DF80DF90DFA0DFB0DA00DCF
:1003B6007408711CF029F8027508031C750FF90200
:1003C6007608031C760FFA027708031C770FFB02E8
:1003D6000001031C0130A002012AF8077508031862
:1003E600750FF90776080318760FFA0777080318CA
:1003F600770FFB07000103180130A007F10DFC0B76
:10040600D529700DF80DF90DFA0DFB0DA00D740828
:10041600711C1F2AF8027508031C750FF90276086D
:10042600031C760FFA027708031C770FFB02000104
:10043600031C0130A002302AF80775080318750F4F
:10044600F90776080318760FFA0777080318770F67
:10045600FB07000103180130A007F00D0730FC0070
:10046600700DF80DF90DFA0DFB0DA00D7408701C3A
:100476004E2AF8027508031C750FF9027608031C4C
:10048600760FFA027708031C770FFB020001031CA4
:100496000130A0025F2AF80775080318750FF907DF
:1004A60076080318760FFA0777080318770FFB0705
:1004B600000103180130A007F00DFC0B332A701859
:1004C600722A7408F80775080318750FF907760875
:1004D6000318760FFA0777080318770FFB0708004B
:1004E60083160313BE03BE033E08003C0318802A8E
:1004F600BE03000000000000772A00000000000094
:06050600000000000800E7
:10050C0083120313F801F9011030FC00710DF80D82
:10051C00F90D7408F8027508031C750FF90203181D
:10052C009E2A7408F80775080318750FF90703104D
:0A053C00F00DF10DFC0B8C2A0800F5
:10054600A1017208031DB82A7108F2007008F100B3
:10055600F001A1157208031DB82A7108F200F10115
:10056600A111211672080319C62A2108F302031DD8
:10057600031CCA2A0310F21BCE2AF00DF10DF20D50
:10058600F30BBE2ACA2A0130FC008120D12A023090
:0E059600FC007520D12A0430FC007120080002
:1005A40083120313FB01FA01F9018030F800F10C06
:1005B400F00C031CE62A7408F90775080318750F74
:1005C400FA070318FB0A0310F01FEE2A7408FA074F
:1005D40075080318750FFB07FB0CFA0CF90CF80CE3
:1005E400031CD92A7B08F3007A08F2007908F10089
:0605F4007808F000080089
:1005FA0083120313581083163E08BF001A2058149A
:02060A000800E6
:10060C00831603133308840020308000840A2030C2
:10061C008000840A20308000840A20308000840A04
:10062C0030308000840A8001840A04303307B4001F
:10063C0000303206031D242B003031060319482BE1
:10064C000A30F400F5013108F0003208F10086227E
:10065C007808F0007908F1003030F0078316340880
:10066C008400700880000A30F400F5013108F000B5
:10067C003208F100862270088316B1007108B200AE
:06068C00B4031E2B080060
:100692000030831203138C1A0130F1007108F0004C
:0206A20008004E
:1006A40083160313B201310884000008B300330831
:1006B400003A0319682B3308BE0099208316B20A46
:0E06C4003208310784000008B300592B0800EB
:1006D200831203139F01C0309F04F03083169F05DD
:1006E2001F179F173108F000F00D7010F00D7010F9
:1006F200F00D7010700883129F041F14E7201F155D
:100702001F1D852B0000812B1F101E08F100F00118
:1007120083161E087004B2007108B3000030B304DF
:0A0722003208F0003308F10008006F
:10072C00831203137008F8007108F000F101F20154
:10073C00F301FB01FC019630F300FA017008F100A3
:0C074C007808F000F801F201A322080078
:10075800831603131208013EF00000300318013E0F
:10076800F1003108F400F501D2220630F2007008D9
:10077800F4007108F50072080319C72BF50CF40C86
:10078800F513FF3EC02B0430F1007408F000710827
:100798000319D22BF00D7010FF3ECC2B30307005B2
:1007A800F3007408F0007508F100F10CF00CF11377
:1007B800F10CF00CF113700895000F3097057308D1
:0407C800970408008A
:1007CC008316031331088312DB0083163208F10001
:1007DC000130F00071080319F72BF00D7010FF3E7B
:1007EC00F12B70088312DA00F0097008D900803000
:1007FC008316310784007008800584137008800507
:02080C000800E2
:10080E00831203131A08F200981C0F2C18121816D4
:0A081E007208F1007108F0000800F4
:10082800831603130711831212150C30970408005E
:0C08380083120313950117129712080099
:1008440083160313891009110812881208138813D8
:1008540083128910091188130813881208120D20B5
:100864000D200D20881608168914032089100D20E8
:100874008914032089100D208914032089100D2068
:1008840008128914032089100D208914032089106B
:10089400881288178914032089100D2088130816DC
:1008A40089140320891008128914032089100D204B
:1008B40089140320891008168914032089100D2037
:1008C4000812891403208910881708178816081637
:0C08D4008914032089100D20581408001E
:1008E00083120313FB017308031D77080319C72C38
:1008F00072087606FA007708F3077E30031C842C12
:10090000F3020318CA2C872CF302031CCD2C7208A7
:10091000F8007108FC007008FD00F817F6170310C6
:10092000F201F101F0011830A1007D1CA12C740826
:10093000F00775080318750FF10776080318760F8E
:10094000F207F20CF10CF00CF80CFC0CFD0C03108F
:10095000A10B952CF21BB12CF80DF00DF10DF20D41
:10096000F3037B1B701CC32CF81FC32CF00A031964
:10097000F10A0319F20A031DC32CF20CF10CF00C5E
:10098000F30A0319CA2CFA1FF2130030CF2C0130DE
:100990008120CF2C0230EF20CF2C043075200000B6
:0209A00008004D
:1009A200FF3083120313A200FF30A300FF30A40024
:1009B200FF309F01C0309F04F03083169F051F1740
:0809C2009F1783121F140800A7
:1009CA0083120313FB01FC01FA0173080319242D96
:1009DA00F2178E30F302F31BF52C0319F52C272D91
:1009EA00F309F30A08307302031C0A2DF300F10D10
:1009FA007208F100F20108307302031C0A2DF10D8E
:100A0A00F1017308031D0310122D73080319122D27
:100A1A000310F20CF10CF30B0D2D7B1B711C1C2D1A
:100A2A00031C1C2DF10A0319F20AF21B332DFA1FBB
:100A3A00362DF209F109F10A0319F20A362DF201EB
:100A4A00F101362D7B14FB1F392DF201FA1F392DC6
:100A5A00FF30F200F100FA0DF20C392D0130FC00E2
:100A6A003B2D0030FC003B2DFF30FC00FC08031935
:0E0A7A003F2DA3207108F0007208F100080063
:100A88008820E830F4000330F500F601F701B020C3
:100A980070088316B9007108BA007208BB007308A1
:100AA800BC003108F4003208F500F601F701FB201C
:100AB80070088316B9007108BA007208BB00730881
:100AC800BC007008F5007108F6007208F70073089A
:100AD800F800F80CF70CF60CF50CF813F80CF70CFA
:100AE800F60CF50CF8137508F0007608F100770895
:100AF800F2007808F300F30CF20CF10CF00CF3138D
:100B08007008B5007108B600882083163308F40011
:100B18003408F500F601F701B02083163508F9000E
:100B28003608FA00FB01FC010330F8007908F400EC
:100B38007A08F5007B08F6007C08F70078080319A6
:100B4800AC2DF40DF50DF60DF70D7410FF3EA32D29
:100B5800FB2070088316B9007108BA007208BB0040
:100B68007308BC000A30F400F5013508F0003608B7
:100B7800F100862270088316B5007108B6000030AF
:100B88007102031DC92D033070020318CC2D362EB7
:100B980083125B08840083163C08003C031DDE2D8D
:100BA8003B08003C031DDE2D3A08003C031DDE2DEA
:100BB8003908003C0318332E83125A088004831620
:100BC8003608003A0319022EB701B8013603BD00F2
:100BD8003808003C031DF22D37083D02031C022E85
:100BE800BE01732200303806031DFC2D3D08370670
:100BF8000319022EB70A0319B80AEA2D3508BE00F0
:100C0800732283125908800583163608003A03199F
:100C1800272EB701B8013603BD003808003C031D74
:100C2800172E37083D02031C272EBE017322003001
:100C38003806031D212E3D0837060319272EB70A4B
:100C48000319B80A0F2E3508BE0073220130B90205
:100C5800031CBA02031CBB02031CBC02CF2D831267
:060C680059088005080098
:100C6E00831603133108013A031D402E8030B10064
:100C7E00572E3108023A031D472EC030B100572EB1
:100C8E003108033A031D4E2E9430B100572E310811
:100C9E00043A031D552ED430B100572E8030B100CA
:100CAE003203F0003108F0077008B1007008BF0081
:100CBE001A2058108316B401340833078400000834
:100CCE00003A0319732E3408330784000008BE005F
:0E0CDE00FD228316B40A632E831258140800F8
:100CEC008316031398169030831298008316871777
:100CFC00071383128C1E852E1A08F0007F2E080015
:101000004D3083160313A0006930A1006330A200A5
:101010007230A3006F30A4006330A5006F30A600CB
:101020006E30A7007430A8007230A9006F30AA009B
:101030006C30AB006130AC006430AD006F30AE009E
:101040007230AF00B00120308312DC002030DD00B0
:101050002030DE003230DF003030E0003230E1009E
:101060003030E2002E30E3003130E400E501A5012C
:101070005430B4005230B5004130B6004230B700B1
:101080004130B8004C30B9004830BA004F30BB0096
:101090003230BC002030BD00BE01831687018312B0
:1010A00087128A11D1248A153330831699001815B6
:1010B0008A1176268A158A1122248A150130831610
:1010C000BF008A111A208A150C308316BF008A11BE
:1010D0001A208A1501308316B1000630B20025307F
:1010E000B3008A1137268A1502308316B100043006
:1010F000B2003430B3008A1137268A150B30FB005A
:101100002630FC005D30FD00FD0B8428FC0B84289C
:10111000FB0B84280000000001308316BF008A11F9
:101120001A208A1501308316B1000130B200A030B8
:10113000B3008A1137268A1502308316B1000230B7
:10114000B2005C30B3008A1137268A150730FB00E5
:101150001730FC006A30FD00FD0BAC28FC0BAC28FE
:10116000FB0BAC28000001308316BF008A111A2047
:101170008A152030A500A6018316860183128601F8
:1011800012109210121492106330831692008A117A
:101190001C248A15D7017F30C30007308316B100A5
:1011A0000130B2008A11E6238A158A1149238A1573
:1011B0007008003A031DDE28D701D5288A110724BC
:1011C0008A157008D70001308316B1000130B200D3
:1011D000A030B3008A1137268A150230FB00043094
:1011E000FC00BA30FD00FD0BF328FC0BF328FB0BD1
:1011F000F328000057086E3A03190429570883168C
:10120000BE008A1199208A155708613A031D0929E1
:1012100086140A308316BE008A1199208A150D3073
:101220008316BE008A1199208A155708413A031D7A
:101230001A2986100A308316BE008A1199208A1551
:101240000D308316BE008A1199208A1557084F3A2F
:10125000031D2C29083086065708743A031D3229CD
:10126000203087065708633A031D47298316B101CA
:101270008A11AC238A150A308316BE008A11992080
:101280008A150D308316BE008A1199208A155708D9
:10129000433A031D602943088316B1008A11AC2329
:1012A0008A150A308316BE008A1199208A150D30DE
:1012B0008316BE008A1199208A158A1114248A1572
:1012C00057082B3A031D7B290A304307F0007008AA
:1012D000C30070088316B1008A11AC238A150A3046
:1012E0008316BE008A1199208A150D308316BE0020
:1012F0008A1199208A1557082D3A031D96290A301C
:101300004302F0007008C30070088316B1008A1110
:10131000AC238A150A308316BE008A1199208A15DB
:101320000D308316BE008A1199208A155708533A4A
:10133000031DB2290A308316BE008A1199208A152E
:101340000D308316BE008A1199208A15B830831695
:10135000B1000B30B200E830B3000330B4008A11A2
:1013600044258A158312031357086D3A031DED298E
:101370003030C4003030C5003030C6003030C700D7
:101380003030C8003030C9003030CA003030CB00B7
:10139000CC01861CCE293130CA00D0293030CA0099
:1013A000861DD5293130C800D7293030C800023019
:1013B0008316B1000230B2004430B3008A113726E0
:1013C0008A150A308316BE008A1199208A150D30BD
:1013D0008316BE008A1199208A1557084D3A031DBD
:1013E000122A02308316B1000630B2004630831252
:1013F000EB004F30EC004930ED002130EE00EF0102
:101400006B308316B3008A1137268A150A3083168B
:10141000BE008A1199208A150D308316BE008A11EC
:1014200099208A155708443A031D462A8316B101AC
:101430008A1169238A1570088312D5007108D600B5
:1014400070088316B1007108B2002530B3008A110C
:1014500006238A150A30BE008A1199208A150D309C
:101460008316BE008A1199208A1525308316B10093
:101470008A1152238A150A30BE008A1199208A15D2
:101480000D308316BE008A1199208A155708543AE8
:10149000031D902A02308316B1008A1169238A1530
:1014A00070088312D5007108D6008A1196238A1518
:1014B0003530F4005E30F5007A30F6007D30F7000C
:1014C0008A1170248A158A11E5248A157008D500BE
:1014D0007108D60070088316B1007108B20025307B
:1014E000B3008A1106238A150A30BE008A1199209A
:1014F0008A150D308316BE008A1199208A15253071
:101500008316B1008A1152238A150A30BE008A114F
:1015100099208A150D308316BE008A1199208A15EC
:101520000230FB000430FC00BA30FD00FD0B962AAF
:0E153000FC0B962AFB0B962A0000D5289E2A5B
:02400E004A2F37
:00000001FF
